:020000040800F2
:100000000050002059140008790300087B03000801
:100010007D0300087F030008810300080000000042
:100020000000000000000000000000008303000842
:10003000850300080000000087030008890300080A
:10004000A1140008A1140008A1140008A1140008BC
:10005000A1140008A1140008A1140008A1140008AC
:10006000A1140008A1140008A1140008A11400089C
:10007000A1140008A1140008A1140008A11400088C
:10008000A1140008A1140008A1140008A11400087C
:10009000A1140008A1140008A1140008A11400086C
:1000A000A1140008A1140008A1140008A11400085C
:1000B000A1140008A1140008A1140008A11400084C
:1000C000A1140008A1140008A1140008A11400083C
:1000D000A1140008A1140008A1140008A11400082C
:1000E000A1140008A1140008A114000800000000D9
:1000F0000000000000000000000000000000000000
:0C01000000000000000000005FF808F1A3
:10010C0010B5054C237833B9044B13B10448AFF345
:10011C0000800123237010BD70000020000000003F
:10012C001816000808B5034B1BB103490348AFF37D
:10013C00008008BD000000007400002018160008A4
:10014C0082B00A4B9A6942F004029A619A6902F0F1
:10015C0004020092009A9A6942F008029A619B6923
:10016C0003F008030193019B02B07047001002409A
:10017C0072B6FEE708B50448044B036000F010FAB1
:10018C0000B908BDFFF7F4FF8C00002000300240DE
:10019C0008B50A480A4B03600A4B4360002383608E
:1001AC00C3604FF48042026143618361C3610362A7
:1001BC0000F0F0FE00B908BDFFF7DAFF9400002054
:1001CC0000540040A086010008B50D480D4B03609B
:1001DC004FF48273436000238360C3600361436107
:1001EC004FF400728261C3610362436283620A232B
:1001FC00C36200F0ADFF00B908BDFFF7B9FF00BF47
:10020C00E80000200030014008B50A480A4B0360A2
:10021C004FF4E133436000238360C36003610C221D
:10022C0042618361C36101F06FF800B908BDFFF74B
:10023C009FFF00BF400100200038014000B591B085
:10024C002822002106A801F053F900230193029300
:10025C000393049305930223069301230A9310231B
:10026C000B9306A800F00CFA68B90F230193002138
:10027C00029103910491059101A800F03FFC20B973
:10028C0011B05DF804FBFFF773FFFFF771FF00007F
:10029C0000B585B000F0BAF9FFF7D0FFFFF750FFBB
:1002AC00FFF768FFFFF774FFFFF78EFFFFF7ACFF58
:1002BC0000F042F803E00549684600F009F8034BEA
:1002CC001B681B6813F0200FF9D0F4E740010020E5
:1002DC00F0B585B004460D466E46642301223146C6
:1002EC00284601F040F8642301220DEB0201284658
:1002FC0001F039F8642304220DEB0201284601F0C9
:10030C0032F86423012202A9284601F02CF89DF84A
:10031C000870384601F0E4F80146039064233A462D
:10032C00284601F020F896E80F0084E80F002046DC
:10033C0005B0F0BD72B6FEE708B50A480A4B03607B
:10034C004FF4E133436000238360C36003610C22EC
:10035C0042618361C36100F0D7FF00B908BDFFF7AC
:10036C00E9FF00BF8001002000440040FEE7FEE7EB
:10037C00FEE7FEE7FEE770477047704708B500F0F0
:10038C0057F908BD82B00E4B9A6942F001029A618E
:10039C009A6902F001020092009ADA6942F08052E6
:1003AC00DA61DB6903F080530193019B054A5368C2
:1003BC0023F0E06343F08063536002B0704700BFEA
:1003CC0000100240000001400268094B9A4200D024
:1003DC00704782B0A3F500535A6942F040025A614B
:1003EC005B6903F040030193019B02B0704700BFAF
:1003FC000030024010B586B000230293039304939F
:10040C0005930268114B9A4201D006B010BD104CF6
:10041C00A36943F00803A361A36903F008030093E5
:10042C00009BC0230293122303930323059302A979
:10043C00084800F03FFCE36943F40013E361E3690F
:10044C0003F400130193019BDFE700BF005400404D
:10045C0000100240000C014010B586B0002302933E
:10046C000393049305930268164B9A4201D006B08D
:10047C0010BD03F560439A6942F480529A619A69FF
:10048C0002F480520092009A9A6942F004029A6136
:10049C009B6903F004030193019BA02302930223A5
:1004AC00039303230593084C02A9204600F002FC99
:1004BC004023029300230393049302A9204600F0E7
:1004CC00F9FBD4E7003001400008014010B588B0BA
:1004DC000023049305930693079303682C4A9342D5
:1004EC0004D02C4A93422BD008B010BD2A4B9A69E9
:1004FC0042F480429A619A6902F480420092009A16
:10050C009A6942F004029A619B6903F00403019317
:10051C00019B4FF400730493022305930323079369
:10052C001E4C04A9204600F0C5FB4FF480630493D5
:10053C0000230593069304A9204600F0BBFBD3E7E8
:10054C00154BDA6942F40032DA61DA6902F40032EE
:10055C000292029A9A6942F004029A619B6903F032
:10056C0004030393039B04230493022305930323A3
:10057C0007930A4C04A9204600F09CFB0823049323
:10058C0000230593069304A9204600F093FBABE7E8
:10059C0000380140004400400010024000080140B7
:1005AC0058B110B5044643791BB101236371002087
:1005BC0010BD0371FFF708FFF7E70120704700003B
:1005CC0010B504460E4B18784FF47A73B3FBF0F366
:1005DC000C4A1068B0FBF3F000F0C8FC68B90F2CA3
:1005EC0001D901200AE0002221464FF0FF3000F033
:1005FC0085FC054B1C60002000E0012010BD00BFF5
:10060C0000000020080000200400002008B5074A64
:10061C00136843F010031360032000F05DFC00200E
:10062C00FFF7CEFFFFF7AEFE002008BD0020024012
:10063C00034A1168034B1B780B441360704700BFCF
:10064C00C001002000000020014B1868704700BF5B
:10065C00C001002082B0084B1B68084AA2FB032390
:10066C005B0A00FB03F3019300BF019B5A1E01922E
:10067C00002BF9D102B0704708000020D34D621056
:10068C00002800F0F18170B582B00446036813F0C5
:10069C00010F2CD0994B5B6803F00C03042B1DD07D
:1006AC00964B5B6803F00C03082B12D06368B3F510
:1006BC00803F41D0002B55D103F1804303F5043327
:1006CC001A6822F480321A601A6822F480221A60A6
:1006DC0037E08A4B5B6813F4803FE7D0874B1B688D
:1006EC0013F4003F03D06368002B00F0BF81236834
:1006FC0013F0020F75D0814B5B6813F00C0F5FD0B9
:10070C007E4B5B6803F00C03082B54D02369002B41
:10071C0000F08A807A4B01221A60FFF795FF05469C
:10072C00764B1B6813F0020F75D1FFF78DFF401B42
:10073C000228F5D903209EE1704A136843F48033F4
:10074C001360636843B3FFF77FFF05466B4B1B6871
:10075C0013F4003FCBD1FFF777FF401B6428F5D98A
:10076C00032088E1B3F5A02F09D0644B1A6822F45A
:10077C0080321A601A6822F480221A60E1E703F1D1
:10078C008043A3F53C331A6842F480221A601A683D
:10079C0042F480321A60D4E7FFF756FF0546574BF8
:1007AC001B6813F4003FA2D0FFF74EFF401B6428D8
:1007BC00F5D903205FE1514B5B6813F4803FA5D161
:1007CC004E4B1B6813F0020F03D02369012B40F032
:1007DC004F814A4A136823F0F803616943EAC10365
:1007EC001360236813F0080F33D0A369002B5CD07F
:1007FC00434B0122C3F88024FFF726FF05463F4BED
:10080C005B6A13F0020F21D1FFF71EFF401B022879
:10081C00F5D903202FE1394A136823F0F8036169F5
:10082C0043EAC1031360DCE7354B00221A60FFF783
:10083C000BFF0546314B1B6813F0020FD1D0FFF7AD
:10084C0003FF401B0228F5D9032014E10120FFF718
:10085C0001FF236813F0040F00F09680274BDB692F
:10086C0013F0805F34D1254BDA6942F08052DA61A3
:10087C00DB6903F080530193019B0125214B1B681D
:10088C0013F4807F26D0E368012B3DD0002B53D18D
:10089C0003F1804303F504331A6A22F001021A6251
:1008AC001A6A22F004021A6233E0154B0022C3F8D4
:1008BC008024FFF7C9FE0546104B5B6A13F0020F4C
:1008CC00C7D0FFF7C1FE401B0228F5D90320D2E0A8
:1008DC000025D3E70B4A136843F480731360FFF7CA
:1008EC00B3FE0646074B1B6813F4807FCBD1FFF792
:1008FC00ABFE801B6428F5D90320BCE0001002403D
:10090C0000004242007000405F4A136A43F001034A
:10091C001362E36833B3FFF797FE06465A4B1B6A24
:10092C0013F0020F2FD1FFF78FFE801B41F288339B
:10093C009842F3D903209EE0052B09D0524B1A6A3A
:10094C0022F001021A621A6A22F004021A62E0E72B
:10095C004D4B1A6A42F004021A621A6A42F0010202
:10096C001A62D6E7FFF770FE0646474B1B6A13F078
:10097C00020F08D0FFF768FE801B41F288339842C3
:10098C00F3D9032077E0E5B9E369002B72D03E4A36
:10099C00526802F00C02082A56D0022B17D03B4B9F
:1009AC0000221A66FFF750FE0446374B1B6813F003
:1009BC00007F47D0FFF748FE001B0228F5D9032023
:1009CC0059E0314AD36923F08053D361DCE72F4BD4
:1009DC0000221A66FFF738FE05462B4B1B6813F0F6
:1009EC00007F06D0FFF730FE401B0228F5D903200C
:1009FC0041E0236AB3F5803F1AD023494B6823F4B6
:100A0C007413226A606A024313434B601F4B01222A
:100A1C001A66FFF719FE04461B4B1B6813F0007F88
:100A2C000ED1FFF711FE001B0228F5D9032022E09E
:100A3C00154A536823F40033A1680B435360DCE779
:100A4C00002018E0002016E0012B16D00E4B5B683E
:100A5C0003F48031226A914211D103F47013626A5B
:100A6C0093420ED1002006E001207047012002E0E5
:100A7C00012000E0002002B070BD0120FBE7012046
:100A8C00F9E70120F7E700BF0010024000004242E6
:100A9C0086B0164B0FCB0DF1180C0CE90F0040F281
:100AAC000123ADF80430124B5B6803F00C02082AEA
:100ABC0002D0104806B07047C3F38342624412F868
:100ACC00100C13F4803F0CD0094B5B68C3F340430C
:100ADC00634413F8143C074A02FB00F0B0FBF3F03C
:100AEC00E8E7054B03FB00F0E4E700BF3016000815
:100AFC000010024000127A0000093D00002800F0AE
:100B0C00A08070B50D460446524B1B6803F00703DA
:100B1C008B420BD24F4A136823F007030B4313602D
:100B2C00136803F007038B4240F08D80236813F0A9
:100B3C00020F17D013F0040F04D0474A536843F444
:100B4C00E0635360236813F0080F04D0424A5368E3
:100B5C0043F460535360404A536823F0F003A16898
:100B6C000B435360236813F0010F31D06368012BE2
:100B7C0020D0022B25D0384A126812F0020F64D014
:100B8C0035494A6822F0030213434B60FFF75CFDC2
:100B9C000646314B5B6803F00C036268B3EB820FC3
:100BAC0016D0FFF751FD801B41F288339842F0D9E3
:100BBC00032045E0284A126812F4003FE0D10120DE
:100BCC003EE0254A126812F0007FD9D1012037E0AF
:100BDC00204B1B6803F00703AB420AD91D4A13686C
:100BEC0023F007032B431360136803F00703AB4296
:100BFC002DD1236813F0040F06D0174A536823F441
:100C0C00E063E1680B435360236813F0080F07D0CF
:100C1C00114A536823F46053216943EAC1035360BA
:100C2C00FFF736FF0C4B5B68C3F303130B4AD35C23
:100C3C00D8400B4B18600B4B1868FFF7C1FC002019
:100C4C0070BD012070470120FAE70120F8E7012070
:100C5C00F6E700BF002002400010024044160008D6
:100C6C000800002004000020014B1868704700BFEA
:100C7C000800002008B5FFF7F7FF044B5B68C3F3CF
:100C8C000223034AD35CD84008BD00BF00100240C9
:100C9C005416000808B5FFF7E7FF044B5B68C3F375
:100CAC00C223034AD35CD84008BD00BF00100240E9
:100CBC005416000870B582B00024A446A6E0804DFE
:100CCC00AA4210D007D97F4DAA420CD005F5803529
:100CDC00AA4208D013E0A5F58015AA4203D005F569
:100CEC007025AA4207D18A68002A58D0012A51D00F
:100CFC004361082403E0A5F58015AA42F3D0BEF1A8
:100D0C00FF0F4ED80646BEF1FF0F4CD84FEA8C02AF
:100D1C0033680F25954023EA050304FA02F21343C6
:100D2C0033604B6813F0805F6ED0674B9A6942F06A
:100D3C0001029A619B6903F001030193019B4FEA45
:100D4C009C02951C614B53F825600CF003039D002D
:100D5C000F23AB4026EA03065D4B984229D003F5DE
:100D6C008063984200F08E8003F58063984200F017
:100D7C008B8003F58063984219D004231AE0CC6869
:100D8C00BDE7CC680434BAE7CC680834B7E7CC6864
:100D9C000C34B4E703610824B1E70024AFE7042462
:100DAC00ADE7061DAFE7ACF108029200B0E70323F4
:100DBC0000E00023AB4033430232444D45F822306F
:100DCC004B6813F4803F61D0424A136843EA0E0328
:100DDC0013604B6813F4003F5ED03E4A536843EAFD
:100DEC000E0353604B6813F4801F5BD0394A936831
:100DFC0043EA0E0393604B6813F4001F58D0354A36
:100E0C00D36843EA0E03D3600CF1010C0A6832FA82
:100E1C000CF353D0012303FA0CF302EA030E33EA6A
:100E2C000202F1D14A68122A3FF649AF122A3FF664
:100E3C0066AF01A555F822F0F30C00088B0D0008E5
:100E4C00950D0008A70D00080B0D00080B0D0008F0
:100E5C000B0D00080B0D00080B0D00080B0D000806
:100E6C000B0D00080B0D00080B0D00080B0D0008F6
:100E7C000B0D00080B0D00080B0D00088F0D000862
:100E8C009B0D0008012395E7022393E7114A136891
:100E9C0023EA0E0313609CE70E4A536823EA0E0301
:100EAC0053609FE70B4A936823EA0E039360A2E713
:100EBC00084AD36823EA0E03D360A5E702B070BDDD
:100ECC000000221000003110001002400000014010
:100EDC000008014000040140074AD36823F4E06392
:100EEC001B041B0C000200F4E060034343F0BF63DF
:100EFC0043F40033D360704700ED00E000B5194BAC
:100F0C00DB68C3F30223C3F1070CBCF1040F28BF49
:100F1C004FF0040C03F1040EBEF1060F18D9033B7D
:100F2C004FF0FF3E0EFA0CFC21EA0C0199400EFA30
:100F3C0003F322EA0303194300280BDB0901C9B2AE
:100F4C0000F1604000F5614080F800135DF804FB8F
:100F5C000023E5E700F00F000901C9B2024B195458
:100F6C00F4E700BF00ED00E014ED00E00138B0F153
:100F7C00807F0BD24FF0E0235861054AF02182F8B4
:100F8C0023100020986107221A61704701207047D6
:100F9C0000ED00E0002800F0CC8070B5044690F81D
:100FAC003D30002B77D0242384F83D302268136821
:100FBC0023F0010313602268136843F400431360A9
:100FCC002268136823F400431360FFF753FE626832
:100FDC005A4B9A4264D85A4B98428CBF0023012337
:100FEC00002B40F0A8805749A1FB00318B0C2568E1
:100FFC006A6822F03F0242EA91426A6021680A6AFA
:10100C0022F03F0266684D4DAE424FD80133134378
:10101C000B622168CA6922F44F4222F0FF02666813
:10102C00464B9E424CD8431E7600B3FBF6F301337D
:10103C0040F6FC70034278D0C3F30B031343CB612F
:10104C0021680B6823F0C003E269206A0243134352
:10105C000B6021688B6823F4034323F0FF032269A0
:10106C00E068024313438B602168CB6823F0FF03D5
:10107C006269A06902431343CB602268136843F092
:10108C000103136000202064202384F83D3020638A
:10109C0084F83E0070BD80F83C30FFF7ABF982E776
:1010AC00294B98428CBF0023012399E74FF4967586
:1010BC0005FB03F3254DA5FB03539B090133A6E761
:1010CC00A368BBB9451E06EB460CB5FBFCF5013518
:1010DC00C5F30B05B5FA85F56D0945BBC3B90138E8
:1010EC0006EB4603B0FBF3F30133C3F30B0343F4FA
:1010FC000043A3E7451E06EB860C0CEB8C0CB5FBF2
:10110C00FCF50135C5F30B05B5FA85F56D09E4E77A
:10111C00013806EB860303EB8303B0FBF3F30133D7
:10112C00C3F30B0343F4404388E7042386E701230E
:10113C0084E7012070470120ACE700BFA0860100C6
:10114C007F841E0083DE1B43FF083D00D34D6210DD
:10115C00002856D010B50446436A33B94368B3F53A
:10116C00827F05D00023C36102E000230361436149
:10117C000023A36294F85130002B3CD0022384F856
:10118C0051302268136823F040031360636803F442
:10119C008273A26802F404421343E26802F4006210
:1011AC001343226902F002021343626902F0010246
:1011BC001343A26902F400721343E26902F038028D
:1011CC001343226A02F080021343A26A02F4005213
:1011DC00216813430B60638B226803F00403536094
:1011EC002268D36923F40063D36100206065012376
:1011FC0084F8513010BD84F850302046FFF72CF99C
:10120C00BCE701207047000010B504460268136962
:10121C0023F44053C1680B43136183680269134381
:10122C0042691A430168CB6823F4B05323F00C03D2
:10123C001343CB600268536923F4407381690B43F9
:10124C0053610268134B9A4220D0FFF713FD0246FC
:10125C0002EB820202EB820263689B00B2FBF3F2A8
:10126C000D48A0FB02314909642303FB11231B0128
:10127C003233A0FB03235B0903F0F00202EB0112F3
:10128C0003F00F03216813448B6010BDFFF702FDC0
:10129C000246DDE7003801401F85EB512DE9F8438C
:1012AC0005460F4616469946DDF820802C682468C2
:1012BC0037EA04030CBF4FF0010C4FF0000CB4459F
:1012CC001FD1B8F1FF3FF1D0B8F1000F05D0FFF7F7
:1012DC00BBF9A0EB09004045E8D92A68D36823F490
:1012EC00D073D3602A68536923F001035361202320
:1012FC0085F8393085F83A30002385F838300320EA
:10130C0000E00020BDE8F88358B310B5044690F80F
:10131C0039300BB3242384F839302268D36823F492
:10132C000053D3602046FFF76FFF2268136923F444
:10133C00904313612268536923F02A035361226896
:10134C00D36843F40053D3600020E063202384F877
:10135C00393084F83A3010BD80F83830FFF7B6F8E1
:10136C00D8E7012070472DE9F04182B01E4690F875
:10137C003A30DBB2202B5BD104460D469046002957
:10138C005AD0002A5AD090F83830012B58D001236B
:10139C0080F838300023C363222380F83A30FFF7FB
:1013AC0053F90746A4F82C80A4F82E80A368B3F553
:1013BC00805F05D04FF00008002384F8383017E028
:1013CC00236913B14FF00008F6E7A8460025F3E7B0
:1013DC0023685B68C3F3080328F8023B03E0236827
:1013EC005B682B700135E28D92B2013A92B2E285C4
:1013FC00E38D9BB2BBB100963B46002220212046D8
:10140C00FFF74CFFF0B9002DE2D0A368B3F5805F75
:10141C00E5D013B92369002BE1D023685B6803F096
:10142C007F032B70DEE7202384F83A30002000E0A5
:10143C00022002B0BDE8F0810120FAE70120F8E7B4
:10144C000220F6E70320F4E770470000002103E0D8
:10145C000B4B5B58435004310A480B4B42189A42D1
:10146C00F6D30A4A02E0002342F8043B084B9A42A6
:10147C00F9D3FFF7E9FF00F00FF8FEF709FF70470B
:10148C00641600080000002070000020700000208E
:10149C00D8010020FEE7000070B500260C4D0D4C65
:1014AC00641BA410A64209D100F0B0F800260A4D26
:1014BC000A4C641BA410A64205D170BD55F8043B20
:1014CC0098470136EEE755F8043B98470136F2E7AA
:1014DC005C1600085C1600085C1600086016000814
:1014EC00024B0146186800F00BB800BF0C0000203E
:1014FC0003460244934200D1704703F8011BF9E7FD
:10150C00F8B5CD1C25F0030508350C2D38BF0C257E
:10151C00002D064601DBA94203D90C2333600020C1
:10152C00F8BD00F057F821490A6814469CB9204FC1
:10153C003B6823B92146304600F03CF83860294618
:10154C00304600F037F8431C23D10C23304633606F
:10155C0000F046F8E3E723685B1B17D40B2B03D989
:10156C0023601C44256004E06368A2420CBF0B603E
:10157C005360304600F034F804F10B00231D20F0CA
:10158C000700C21ACCD01B1AA350C9E722466468C4
:10159C00CCE7C41C24F00304A042E3D0211A30464B
:1015AC0000F008F80130DDD1CFE700BFC401002006
:1015BC00C801002038B50023054D044608462B60B1
:1015CC0000F016F8431C02D12B6803B1236038BD20
:1015DC00CC010020014800F009B800BFD001002068
:1015EC00014800F004B800BFD001002070477047DC
:1015FC00044A05491368002B08BF0B4618441060B9
:10160C0018467047D4010020D8010020F8B500BF5F
:10161C00F8BC08BC9E467047F8B500BFF8BC08BCC7
:04162C009E4670471F
:1016300002030405060708090A0B0C0D0E0F101013
:101640000000000000000000000000000102030490
:0C16500006070809000000000102030466
:04165C003101000850
:041660000D01000870
:1016640001000000100000000024F400100000201D
:101674000000000000000000000000000000000066
:101684000000000000000000000000000000000056
:101694000000000000000000000000000000000046
:1016A4000000000000000000000000000000000036
:1016B4000000000000000000000000000000000026
:1016C4000000000000000000000000000000000016
:040000050800145982
:00000001FF
